{
  "_format": "hh-sol-artifact-1",
  "contractName": "Crowdfunding",
  "sourceName": "contracts/Crowdfunding.sol",
  "abi": [
    {
      "anonymous": false,
      "inputs": [
        {
          "indexed": false,
          "internalType": "uint256",
          "name": "campaignID",
          "type": "uint256"
        },
        {
          "indexed": false,
          "internalType": "address",
          "name": "backer",
          "type": "address"
        },
        {
          "indexed": false,
          "internalType": "uint256",
          "name": "amount",
          "type": "uint256"
        },
        {
          "indexed": false,
          "internalType": "uint256",
          "name": "total",
          "type": "uint256"
        }
      ],
      "name": "FundTransfer",
      "type": "event"
    },
    {
      "inputs": [
        {
          "internalType": "uint256",
          "name": "campaignId",
          "type": "uint256"
        },
        {
          "internalType": "uint256",
          "name": "taskId",
          "type": "uint256"
        },
        {
          "internalType": "string",
          "name": "_image",
          "type": "string"
        },
        {
          "internalType": "string",
          "name": "_text",
          "type": "string"
        }
      ],
      "name": "addTaskProgress",
      "outputs": [],
      "stateMutability": "nonpayable",
      "type": "function"
    },
    {
      "inputs": [
        {
          "internalType": "uint256",
          "name": "",
          "type": "uint256"
        },
        {
          "internalType": "address",
          "name": "",
          "type": "address"
        }
      ],
      "name": "campaignContributions",
      "outputs": [
        {
          "internalType": "uint256",
          "name": "",
          "type": "uint256"
        }
      ],
      "stateMutability": "view",
      "type": "function"
    },
    {
      "inputs": [],
      "name": "campaignCount",
      "outputs": [
        {
          "internalType": "uint256",
          "name": "",
          "type": "uint256"
        }
      ],
      "stateMutability": "view",
      "type": "function"
    },
    {
      "inputs": [
        {
          "internalType": "address",
          "name": "",
          "type": "address"
        }
      ],
      "name": "campaignOwners",
      "outputs": [
        {
          "internalType": "address payable",
          "name": "owner",
          "type": "address"
        },
        {
          "internalType": "string",
          "name": "name",
          "type": "string"
        },
        {
          "internalType": "string",
          "name": "image",
          "type": "string"
        },
        {
          "internalType": "uint256",
          "name": "campaignId",
          "type": "uint256"
        },
        {
          "internalType": "uint256",
          "name": "goal",
          "type": "uint256"
        },
        {
          "internalType": "uint256",
          "name": "amountRaised",
          "type": "uint256"
        },
        {
          "internalType": "uint256",
          "name": "totalTasks",
          "type": "uint256"
        },
        {
          "internalType": "bool",
          "name": "isComplete",
          "type": "bool"
        }
      ],
      "stateMutability": "view",
      "type": "function"
    },
    {
      "inputs": [
        {
          "internalType": "uint256",
          "name": "",
          "type": "uint256"
        },
        {
          "internalType": "uint256",
          "name": "",
          "type": "uint256"
        }
      ],
      "name": "campaignTasks",
      "outputs": [
        {
          "internalType": "string",
          "name": "title",
          "type": "string"
        },
        {
          "internalType": "uint256",
          "name": "taskId",
          "type": "uint256"
        },
        {
          "internalType": "uint256",
          "name": "taskAmount",
          "type": "uint256"
        },
        {
          "internalType": "uint256",
          "name": "taskAmountRaised",
          "type": "uint256"
        },
        {
          "internalType": "bool",
          "name": "isComplete",
          "type": "bool"
        }
      ],
      "stateMutability": "view",
      "type": "function"
    },
    {
      "inputs": [
        {
          "internalType": "uint256",
          "name": "",
          "type": "uint256"
        }
      ],
      "name": "campaigns",
      "outputs": [
        {
          "internalType": "address payable",
          "name": "owner",
          "type": "address"
        },
        {
          "internalType": "string",
          "name": "name",
          "type": "string"
        },
        {
          "internalType": "string",
          "name": "image",
          "type": "string"
        },
        {
          "internalType": "uint256",
          "name": "campaignId",
          "type": "uint256"
        },
        {
          "internalType": "uint256",
          "name": "goal",
          "type": "uint256"
        },
        {
          "internalType": "uint256",
          "name": "amountRaised",
          "type": "uint256"
        },
        {
          "internalType": "uint256",
          "name": "totalTasks",
          "type": "uint256"
        },
        {
          "internalType": "bool",
          "name": "isComplete",
          "type": "bool"
        }
      ],
      "stateMutability": "view",
      "type": "function"
    },
    {
      "inputs": [
        {
          "internalType": "uint256",
          "name": "campaignId",
          "type": "uint256"
        }
      ],
      "name": "closeCampaign",
      "outputs": [],
      "stateMutability": "nonpayable",
      "type": "function"
    },
    {
      "inputs": [
        {
          "internalType": "uint256",
          "name": "campaignId",
          "type": "uint256"
        },
        {
          "internalType": "uint256",
          "name": "taskId",
          "type": "uint256"
        }
      ],
      "name": "closeTask",
      "outputs": [],
      "stateMutability": "nonpayable",
      "type": "function"
    },
    {
      "inputs": [
        {
          "internalType": "uint256",
          "name": "campaignID",
          "type": "uint256"
        },
        {
          "internalType": "uint256",
          "name": "taskID",
          "type": "uint256"
        }
      ],
      "name": "contribute",
      "outputs": [],
      "stateMutability": "payable",
      "type": "function"
    },
    {
      "inputs": [
        {
          "internalType": "string",
          "name": "_name",
          "type": "string"
        },
        {
          "internalType": "string",
          "name": "_image",
          "type": "string"
        },
        {
          "internalType": "uint256",
          "name": "_goal",
          "type": "uint256"
        }
      ],
      "name": "createCampaign",
      "outputs": [],
      "stateMutability": "nonpayable",
      "type": "function"
    },
    {
      "inputs": [
        {
          "internalType": "string",
          "name": "_title",
          "type": "string"
        },
        {
          "internalType": "uint256",
          "name": "campaignID",
          "type": "uint256"
        },
        {
          "internalType": "uint256",
          "name": "_taskAmount",
          "type": "uint256"
        }
      ],
      "name": "createTask",
      "outputs": [],
      "stateMutability": "nonpayable",
      "type": "function"
    },
    {
      "inputs": [
        {
          "internalType": "uint256",
          "name": "campaignID",
          "type": "uint256"
        }
      ],
      "name": "getCampaign",
      "outputs": [
        {
          "internalType": "address",
          "name": "",
          "type": "address"
        },
        {
          "internalType": "string",
          "name": "",
          "type": "string"
        },
        {
          "internalType": "uint256",
          "name": "",
          "type": "uint256"
        },
        {
          "internalType": "uint256",
          "name": "",
          "type": "uint256"
        },
        {
          "internalType": "uint256",
          "name": "",
          "type": "uint256"
        },
        {
          "internalType": "bool",
          "name": "",
          "type": "bool"
        }
      ],
      "stateMutability": "view",
      "type": "function"
    },
    {
      "inputs": [],
      "name": "getCampaignCount",
      "outputs": [
        {
          "internalType": "uint256",
          "name": "",
          "type": "uint256"
        }
      ],
      "stateMutability": "view",
      "type": "function"
    },
    {
      "inputs": [],
      "name": "getCampaignIds",
      "outputs": [
        {
          "internalType": "uint256[]",
          "name": "",
          "type": "uint256[]"
        }
      ],
      "stateMutability": "view",
      "type": "function"
    },
    {
      "inputs": [
        {
          "internalType": "uint256",
          "name": "campaignID",
          "type": "uint256"
        },
        {
          "internalType": "uint256",
          "name": "taskID",
          "type": "uint256"
        }
      ],
      "name": "getTask",
      "outputs": [
        {
          "internalType": "string",
          "name": "",
          "type": "string"
        },
        {
          "internalType": "uint256",
          "name": "",
          "type": "uint256"
        },
        {
          "internalType": "uint256",
          "name": "",
          "type": "uint256"
        },
        {
          "internalType": "bool",
          "name": "",
          "type": "bool"
        }
      ],
      "stateMutability": "view",
      "type": "function"
    },
    {
      "inputs": [
        {
          "internalType": "uint256",
          "name": "campaignID",
          "type": "uint256"
        }
      ],
      "name": "getTaskIds",
      "outputs": [
        {
          "internalType": "uint256[]",
          "name": "",
          "type": "uint256[]"
        }
      ],
      "stateMutability": "view",
      "type": "function"
    },
    {
      "inputs": [
        {
          "internalType": "address",
          "name": "user",
          "type": "address"
        }
      ],
      "name": "getUserCampaigns",
      "outputs": [
        {
          "internalType": "uint256[]",
          "name": "",
          "type": "uint256[]"
        }
      ],
      "stateMutability": "view",
      "type": "function"
    },
    {
      "inputs": [
        {
          "internalType": "address",
          "name": "user",
          "type": "address"
        },
        {
          "internalType": "uint256",
          "name": "campaignId",
          "type": "uint256"
        }
      ],
      "name": "getUserContributionByCampaign",
      "outputs": [
        {
          "internalType": "uint256",
          "name": "",
          "type": "uint256"
        }
      ],
      "stateMutability": "view",
      "type": "function"
    },
    {
      "inputs": [
        {
          "internalType": "address",
          "name": "user",
          "type": "address"
        },
        {
          "internalType": "uint256",
          "name": "campaignId",
          "type": "uint256"
        },
        {
          "internalType": "uint256",
          "name": "taskId",
          "type": "uint256"
        }
      ],
      "name": "getUserContributionByTask",
      "outputs": [
        {
          "internalType": "uint256",
          "name": "",
          "type": "uint256"
        }
      ],
      "stateMutability": "view",
      "type": "function"
    },
    {
      "inputs": [
        {
          "internalType": "address",
          "name": "user",
          "type": "address"
        },
        {
          "internalType": "uint256",
          "name": "campaignID",
          "type": "uint256"
        }
      ],
      "name": "getUserTasks",
      "outputs": [
        {
          "internalType": "uint256[]",
          "name": "",
          "type": "uint256[]"
        }
      ],
      "stateMutability": "view",
      "type": "function"
    },
    {
      "inputs": [
        {
          "internalType": "uint256",
          "name": "",
          "type": "uint256"
        },
        {
          "internalType": "uint256",
          "name": "",
          "type": "uint256"
        },
        {
          "internalType": "address",
          "name": "",
          "type": "address"
        }
      ],
      "name": "taskContributions",
      "outputs": [
        {
          "internalType": "uint256",
          "name": "",
          "type": "uint256"
        }
      ],
      "stateMutability": "view",
      "type": "function"
    },
    {
      "inputs": [
        {
          "internalType": "uint256",
          "name": "",
          "type": "uint256"
        },
        {
          "internalType": "uint256",
          "name": "",
          "type": "uint256"
        },
        {
          "internalType": "uint256",
          "name": "",
          "type": "uint256"
        }
      ],
      "name": "taskProgress",
      "outputs": [
        {
          "internalType": "string",
          "name": "image",
          "type": "string"
        },
        {
          "internalType": "string",
          "name": "text",
          "type": "string"
        }
      ],
      "stateMutability": "view",
      "type": "function"
    },
    {
      "inputs": [
        {
          "internalType": "address",
          "name": "",
          "type": "address"
        },
        {
          "internalType": "uint256",
          "name": "",
          "type": "uint256"
        }
      ],
      "name": "userToCampaignId",
      "outputs": [
        {
          "internalType": "uint256",
          "name": "",
          "type": "uint256"
        }
      ],
      "stateMutability": "view",
      "type": "function"
    },
    {
      "inputs": [
        {
          "internalType": "address",
          "name": "",
          "type": "address"
        },
        {
          "internalType": "uint256",
          "name": "",
          "type": "uint256"
        },
        {
          "internalType": "uint256",
          "name": "",
          "type": "uint256"
        }
      ],
      "name": "userToTaskId",
      "outputs": [
        {
          "internalType": "uint256",
          "name": "",
          "type": "uint256"
        }
      ],
      "stateMutability": "view",
      "type": "function"
    },
    {
      "inputs": [
        {
          "internalType": "uint256",
          "name": "campaignId",
          "type": "uint256"
        }
      ],
      "name": "withdrawFromCampaign",
      "outputs": [],
      "stateMutability": "payable",
      "type": "function"
    }
  ],
  "bytecode": "0x6080604052600060085534801561001557600080fd5b50613829806100256000396000f3fe6080604052600436106101665760003560e01c80635598f8cc116100d15780639fc03b341161008a578063c6230a0211610064578063c6230a02146105bf578063df35fb94146105fc578063f00e496a14610639578063ffa56a571461067657610166565b80639fc03b3414610518578063a1e5084c14610559578063b0e1c1e11461059657610166565b80635598f8cc146103e35780636caa9218146104255780637274e30d1461045057806379249e6c1461047b5780638c590917146104bf5780639c92bb23146104db57610166565b806322c599581161012357806322c59958146102835780633ba5db25146102c057806347c9e8f6146102fd57806348a0598114610328578063518a71f31461036557806352dd4eb1146103a357610166565b8063059378ea1461016b57806305d7f29f146101945780630dda3da4146101bd5780630e39ac67146101fa5780630e5cb86714610216578063141961bc1461023f575b600080fd5b34801561017757600080fd5b50610192600480360381019061018d91906127fa565b61069f565b005b3480156101a057600080fd5b506101bb60048036038101906101b691906128c6565b61088c565b005b3480156101c957600080fd5b506101e460048036038101906101df91906126f0565b610a6f565b6040516101f1919061310d565b60405180910390f35b610214600480360381019061020f9190612861565b610aa0565b005b34801561022257600080fd5b5061023d60048036038101906102389190612951565b610c6b565b005b34801561024b57600080fd5b5061026660048036038101906102619190612861565b610e0a565b60405161027a989796959493929190612d3a565b60405180910390f35b34801561028f57600080fd5b506102aa60048036038101906102a5919061288a565b610f8f565b6040516102b7919061310d565b60405180910390f35b3480156102cc57600080fd5b506102e760048036038101906102e29190612861565b610fb4565b6040516102f49190612e2e565b60405180910390f35b34801561030957600080fd5b5061031261112f565b60405161031f9190612e2e565b60405180910390f35b34801561033457600080fd5b5061034f600480360381019061034a919061272c565b611229565b60405161035c919061310d565b60405180910390f35b34801561037157600080fd5b5061038c600480360381019061038791906129e4565b611296565b60405161039a929190612e50565b60405180910390f35b3480156103af57600080fd5b506103ca60048036038101906103c591906128c6565b6113f4565b6040516103da9493929190612e87565b60405180910390f35b3480156103ef57600080fd5b5061040a60048036038101906104059190612861565b61159d565b60405161041c96959493929190612dc6565b60405180910390f35b34801561043157600080fd5b5061043a6116fb565b604051610447919061310d565b60405180910390f35b34801561045c57600080fd5b50610465611705565b604051610472919061310d565b60405180910390f35b34801561048757600080fd5b506104a2600480360381019061049d91906126c7565b61170b565b6040516104b6989796959493929190612d3a565b60405180910390f35b6104d960048036038101906104d491906128c6565b611890565b005b3480156104e757600080fd5b5061050260048036038101906104fd91906126f0565b611ee3565b60405161050f919061310d565b60405180910390f35b34801561052457600080fd5b5061053f600480360381019061053a91906128c6565b611f3e565b604051610550959493929190612ed3565b60405180910390f35b34801561056557600080fd5b50610580600480360381019061057b91906126c7565b612016565b60405161058d9190612e2e565b60405180910390f35b3480156105a257600080fd5b506105bd60048036038101906105b89190612861565b6120ad565b005b3480156105cb57600080fd5b506105e660048036038101906105e191906126f0565b612213565b6040516105f39190612e2e565b60405180910390f35b34801561060857600080fd5b50610623600480360381019061061e919061272c565b6122bc565b604051610630919061310d565b60405180910390f35b34801561064557600080fd5b50610660600480360381019061065b9190612902565b6122fa565b60405161066d919061310d565b60405180910390f35b34801561068257600080fd5b5061069d6004803603810190610698919061277b565b61232c565b005b600082101580156106b257506008548211155b6106f1576040517f08c379a00000000000000000000000000000000000000000000000000000000081526004016106e8906130cd565b60405180910390fd5b600080600084815260200190815260200160002090508060000160009054906101000a900473ffffffffffffffffffffffffffffffffffffffff1673ffffffffffffffffffffffffffffffffffffffff163373ffffffffffffffffffffffffffffffffffffffff1614610799576040517f08c379a00000000000000000000000000000000000000000000000000000000081526004016107909061306d565b60405180910390fd5b60006040518060a00160405280868152602001600184600601546107bd9190613218565b81526020018481526020016000815260200160001515815250905080600260008681526020019081526020016000206000600185600601546107ff9190613218565b81526020019081526020016000206000820151816000019080519060200190610829929190612592565b5060208201518160010155604082015181600201556060820151816003015560808201518160040160006101000a81548160ff0219169083151502179055509050508160060160008154809291906108809061336d565b91905055505050505050565b6000821015801561089f57506008548211155b6108de576040517f08c379a00000000000000000000000000000000000000000000000000000000081526004016108d5906130cd565b60405180910390fd5b600080600084815260200190815260200160002090508060000160009054906101000a900473ffffffffffffffffffffffffffffffffffffffff1673ffffffffffffffffffffffffffffffffffffffff163373ffffffffffffffffffffffffffffffffffffffff1614610986576040517f08c379a000000000000000000000000000000000000000000000000000000000815260040161097d90612f8d565b60405180910390fd5b60008211801561099a575080600601548211155b6109d9576040517f08c379a00000000000000000000000000000000000000000000000000000000081526004016109d0906130ed565b60405180910390fd5b60006002600085815260200190815260200160002060008481526020019081526020016000209050806002015481600301541015610a4c576040517f08c379a0000000000000000000000000000000000000000000000000000000008152600401610a4390612fad565b60405180910390fd5b60018160040160006101000a81548160ff02191690831515021790555050505050565b60066020528160005260406000208181548110610a8b57600080fd5b90600052602060002001600091509150505481565b60008110158015610ab357506008548111155b610af2576040517f08c379a0000000000000000000000000000000000000000000000000000000008152600401610ae9906130cd565b60405180910390fd5b600080600083815260200190815260200160002090508060000160009054906101000a900473ffffffffffffffffffffffffffffffffffffffff1673ffffffffffffffffffffffffffffffffffffffff163373ffffffffffffffffffffffffffffffffffffffff1614610b9a576040517f08c379a0000000000000000000000000000000000000000000000000000000008152600401610b9190612fcd565b60405180910390fd5b600115158160070160009054906101000a900460ff16151514610bf2576040517f08c379a0000000000000000000000000000000000000000000000000000000008152600401610be99061302d565b60405180910390fd5b6000816005015490508160000160009054906101000a900473ffffffffffffffffffffffffffffffffffffffff1673ffffffffffffffffffffffffffffffffffffffff166108fc829081150290604051600060405180830381858888f19350505050158015610c65573d6000803e3d6000fd5b50505050565b60008410158015610c7e57506008548411155b610cbd576040517f08c379a0000000000000000000000000000000000000000000000000000000008152600401610cb4906130cd565b60405180910390fd5b600080600086815260200190815260200160002090508060000160009054906101000a900473ffffffffffffffffffffffffffffffffffffffff1673ffffffffffffffffffffffffffffffffffffffff163373ffffffffffffffffffffffffffffffffffffffff1614610d65576040517f08c379a0000000000000000000000000000000000000000000000000000000008152600401610d5c90612f2d565b60405180910390fd5b60056000868152602001908152602001600020600085815260200190815260200160002060405180604001604052808581526020018481525090806001815401808255809150506001900390600052602060002090600202016000909190919091506000820151816000019080519060200190610de3929190612592565b506020820151816001019080519060200190610e00929190612592565b5050505050505050565b60006020528060005260406000206000915090508060000160009054906101000a900473ffffffffffffffffffffffffffffffffffffffff1690806001018054610e539061330a565b80601f0160208091040260200160405190810160405280929190818152602001828054610e7f9061330a565b8015610ecc5780601f10610ea157610100808354040283529160200191610ecc565b820191906000526020600020905b815481529060010190602001808311610eaf57829003601f168201915b505050505090806002018054610ee19061330a565b80601f0160208091040260200160405190810160405280929190818152602001828054610f0d9061330a565b8015610f5a5780601f10610f2f57610100808354040283529160200191610f5a565b820191906000526020600020905b815481529060010190602001808311610f3d57829003601f168201915b5050505050908060030154908060040154908060050154908060060154908060070160009054906101000a900460ff16905088565b6003602052816000526040600020602052806000526040600020600091509150505481565b606060008210158015610fc957506008548211155b611008576040517f08c379a0000000000000000000000000000000000000000000000000000000008152600401610fff906130cd565b60405180910390fd5b600080600084815260200190815260200160002090506000816006015467ffffffffffffffff811115611064577f4e487b7100000000000000000000000000000000000000000000000000000000600052604160045260246000fd5b6040519080825280602002602001820160405280156110925781602001602082028036833780820191505090505b50905060005b82600601548110156111245760026000868152602001908152602001600020600082815260200190815260200160002060010154828281518110611105577f4e487b7100000000000000000000000000000000000000000000000000000000600052603260045260246000fd5b602002602001018181525050808061111c9061336d565b915050611098565b508092505050919050565b6060600060085467ffffffffffffffff811115611175577f4e487b7100000000000000000000000000000000000000000000000000000000600052604160045260246000fd5b6040519080825280602002602001820160405280156111a35781602001602082028036833780820191505090505b50905060005b6008548110156112215760008082815260200190815260200160002060030154828281518110611202577f4e487b7100000000000000000000000000000000000000000000000000000000600052603260045260246000fd5b60200260200101818152505080806112199061336d565b9150506111a9565b508091505090565b600060046000848152602001908152602001600020600083815260200190815260200160002060008573ffffffffffffffffffffffffffffffffffffffff1673ffffffffffffffffffffffffffffffffffffffff1681526020019081526020016000205490509392505050565b600560205282600052604060002060205281600052604060002081815481106112be57600080fd5b906000526020600020906002020160009250925050508060000180546112e39061330a565b80601f016020809104026020016040519081016040528092919081815260200182805461130f9061330a565b801561135c5780601f106113315761010080835404028352916020019161135c565b820191906000526020600020905b81548152906001019060200180831161133f57829003601f168201915b5050505050908060010180546113719061330a565b80601f016020809104026020016040519081016040528092919081815260200182805461139d9061330a565b80156113ea5780601f106113bf576101008083540402835291602001916113ea565b820191906000526020600020905b8154815290600101906020018083116113cd57829003601f168201915b5050505050905082565b6060600080600080861015801561140d57506008548611155b61144c576040517f08c379a0000000000000000000000000000000000000000000000000000000008152600401611443906130cd565b60405180910390fd5b6000806000888152602001908152602001600020905060008610158015611477575080600601548611155b6114b6576040517f08c379a00000000000000000000000000000000000000000000000000000000081526004016114ad906130ed565b60405180910390fd5b6000600260008981526020019081526020016000206000888152602001908152602001600020905080600001816002015482600301548360040160009054906101000a900460ff1683805461150a9061330a565b80601f01602080910402602001604051908101604052809291908181526020018280546115369061330a565b80156115835780601f1061155857610100808354040283529160200191611583565b820191906000526020600020905b81548152906001019060200180831161156657829003601f168201915b505050505093509550955095509550505092959194509250565b60006060600080600080600087101580156115ba57506008548711155b6115f9576040517f08c379a00000000000000000000000000000000000000000000000000000000081526004016115f0906130cd565b60405180910390fd5b600080600089815260200190815260200160002090508060000160009054906101000a900473ffffffffffffffffffffffffffffffffffffffff16816001018260040154836005015484600601548560070160009054906101000a900460ff168480546116659061330a565b80601f01602080910402602001604051908101604052809291908181526020018280546116919061330a565b80156116de5780601f106116b3576101008083540402835291602001916116de565b820191906000526020600020905b8154815290600101906020018083116116c157829003601f168201915b505050505094509650965096509650965096505091939550919395565b6000600854905090565b60085481565b60016020528060005260406000206000915090508060000160009054906101000a900473ffffffffffffffffffffffffffffffffffffffff16908060010180546117549061330a565b80601f01602080910402602001604051908101604052809291908181526020018280546117809061330a565b80156117cd5780601f106117a2576101008083540402835291602001916117cd565b820191906000526020600020905b8154815290600101906020018083116117b057829003601f168201915b5050505050908060020180546117e29061330a565b80601f016020809104026020016040519081016040528092919081815260200182805461180e9061330a565b801561185b5780601f106118305761010080835404028352916020019161185b565b820191906000526020600020905b81548152906001019060200180831161183e57829003601f168201915b5050505050908060030154908060040154908060050154908060060154908060070160009054906101000a900460ff16905088565b6000349050600083101580156118a857506008548311155b6118e7576040517f08c379a00000000000000000000000000000000000000000000000000000000081526004016118de906130cd565b60405180910390fd5b6000806000858152602001908152602001600020905060008211611940576040517f08c379a000000000000000000000000000000000000000000000000000000000815260040161193790612f4d565b60405180910390fd5b600015158160070160009054906101000a900460ff16151514611998576040517f08c379a000000000000000000000000000000000000000000000000000000000815260040161198f90612f6d565b60405180910390fd5b6000831415611b255780600401548282600501546119b69190613218565b11156119f7576040517f08c379a00000000000000000000000000000000000000000000000000000000081526004016119ee9061300d565b60405180910390fd5b81816005016000828254611a0b9190613218565b92505081905550816003600086815260200190815260200160002060003373ffffffffffffffffffffffffffffffffffffffff1673ffffffffffffffffffffffffffffffffffffffff1681526020019081526020016000206000828254611a729190613218565b92505081905550600660003373ffffffffffffffffffffffffffffffffffffffff1673ffffffffffffffffffffffffffffffffffffffff1681526020019081526020016000208490806001815401808255809150506001900390600052602060002001600090919091909150557f5a8ab39e347faac3b94ca81a6c1597ee51c3d7efcfdb946839eae608443d78c48433848460050154604051611b189493929190613128565b60405180910390a1611eb0565b600083118015611b39575080600601548311155b611b78576040517f08c379a0000000000000000000000000000000000000000000000000000000008152600401611b6f906130ed565b60405180910390fd5b60006002600086815260200190815260200160002060008581526020019081526020016000209050600015158160040160009054906101000a900460ff16151514611bf8576040517f08c379a0000000000000000000000000000000000000000000000000000000008152600401611bef90612fed565b60405180910390fd5b8060020154838260030154611c0d9190613218565b1115611c4e576040517f08c379a0000000000000000000000000000000000000000000000000000000008152600401611c45906130ad565b60405180910390fd5b82816003016000828254611c629190613218565b9250508190555082826005016000828254611c7d9190613218565b92505081905550826003600087815260200190815260200160002060003373ffffffffffffffffffffffffffffffffffffffff1673ffffffffffffffffffffffffffffffffffffffff1681526020019081526020016000206000828254611ce49190613218565b925050819055508260046000878152602001908152602001600020600086815260200190815260200160002060003373ffffffffffffffffffffffffffffffffffffffff1673ffffffffffffffffffffffffffffffffffffffff1681526020019081526020016000206000828254611d5c9190613218565b92505081905550600660003373ffffffffffffffffffffffffffffffffffffffff1673ffffffffffffffffffffffffffffffffffffffff168152602001908152602001600020859080600181540180825580915050600190039060005260206000200160009091909190915055600760003373ffffffffffffffffffffffffffffffffffffffff1673ffffffffffffffffffffffffffffffffffffffff16815260200190815260200160002060008681526020019081526020016000208490806001815401808255809150506001900390600052602060002001600090919091909150557f5a8ab39e347faac3b94ca81a6c1597ee51c3d7efcfdb946839eae608443d78c48533858460030154604051611e799493929190613128565b60405180910390a18060020154816003015410611eae5760018160040160006101000a81548160ff0219169083151502179055505b505b8060040154816005015410611edd5760018160070160006101000a81548160ff0219169083151502179055505b50505050565b60006003600083815260200190815260200160002060008473ffffffffffffffffffffffffffffffffffffffff1673ffffffffffffffffffffffffffffffffffffffff16815260200190815260200160002054905092915050565b600260205281600052604060002060205280600052604060002060009150915050806000018054611f6e9061330a565b80601f0160208091040260200160405190810160405280929190818152602001828054611f9a9061330a565b8015611fe75780601f10611fbc57610100808354040283529160200191611fe7565b820191906000526020600020905b815481529060010190602001808311611fca57829003601f168201915b5050505050908060010154908060020154908060030154908060040160009054906101000a900460ff16905085565b6060600660008373ffffffffffffffffffffffffffffffffffffffff1673ffffffffffffffffffffffffffffffffffffffff1681526020019081526020016000208054806020026020016040519081016040528092919081815260200182805480156120a157602002820191906000526020600020905b81548152602001906001019080831161208d575b50505050509050919050565b600081101580156120c057506008548111155b6120ff576040517f08c379a00000000000000000000000000000000000000000000000000000000081526004016120f6906130cd565b60405180910390fd5b600080600083815260200190815260200160002090508060000160009054906101000a900473ffffffffffffffffffffffffffffffffffffffff1673ffffffffffffffffffffffffffffffffffffffff163373ffffffffffffffffffffffffffffffffffffffff16146121a7576040517f08c379a000000000000000000000000000000000000000000000000000000000815260040161219e9061304d565b60405180910390fd5b8060040154816005015410156121f2576040517f08c379a00000000000000000000000000000000000000000000000000000000081526004016121e99061308d565b60405180910390fd5b60018160070160006101000a81548160ff0219169083151502179055505050565b6060600760008473ffffffffffffffffffffffffffffffffffffffff1673ffffffffffffffffffffffffffffffffffffffff16815260200190815260200160002060008381526020019081526020016000208054806020026020016040519081016040528092919081815260200182805480156122af57602002820191906000526020600020905b81548152602001906001019080831161229b575b5050505050905092915050565b600760205282600052604060002060205281600052604060002081815481106122e457600080fd5b9060005260206000200160009250925050505481565b600460205282600052604060002060205281600052604060002060205280600052604060002060009250925050505481565b60006040518061010001604052803373ffffffffffffffffffffffffffffffffffffffff1681526020018581526020018481526020016008548152602001838152602001600081526020016000815260200160001515815250905080600080600854815260200190815260200160002060008201518160000160006101000a81548173ffffffffffffffffffffffffffffffffffffffff021916908373ffffffffffffffffffffffffffffffffffffffff16021790555060208201518160010190805190602001906123ff929190612592565b50604082015181600201908051906020019061241c929190612592565b50606082015181600301556080820151816004015560a0820151816005015560c0820151816006015560e08201518160070160006101000a81548160ff02191690831515021790555090505080600160003373ffffffffffffffffffffffffffffffffffffffff1673ffffffffffffffffffffffffffffffffffffffff16815260200190815260200160002060008201518160000160006101000a81548173ffffffffffffffffffffffffffffffffffffffff021916908373ffffffffffffffffffffffffffffffffffffffff160217905550602082015181600101908051906020019061250b929190612592565b506040820151816002019080519060200190612528929190612592565b50606082015181600301556080820151816004015560a0820151816005015560c0820151816006015560e08201518160070160006101000a81548160ff021916908315150217905550905050600860008154809291906125879061336d565b919050555050505050565b82805461259e9061330a565b90600052602060002090601f0160209004810192826125c05760008555612607565b82601f106125d957805160ff1916838001178555612607565b82800160010185558215612607579182015b828111156126065782518255916020019190600101906125eb565b5b5090506126149190612618565b5090565b5b80821115612631576000816000905550600101612619565b5090565b600061264861264384613192565b61316d565b90508281526020810184848401111561266057600080fd5b61266b8482856132c8565b509392505050565b600081359050612682816137c5565b92915050565b600082601f83011261269957600080fd5b81356126a9848260208601612635565b91505092915050565b6000813590506126c1816137dc565b92915050565b6000602082840312156126d957600080fd5b60006126e784828501612673565b91505092915050565b6000806040838503121561270357600080fd5b600061271185828601612673565b9250506020612722858286016126b2565b9150509250929050565b60008060006060848603121561274157600080fd5b600061274f86828701612673565b9350506020612760868287016126b2565b9250506040612771868287016126b2565b9150509250925092565b60008060006060848603121561279057600080fd5b600084013567ffffffffffffffff8111156127aa57600080fd5b6127b686828701612688565b935050602084013567ffffffffffffffff8111156127d357600080fd5b6127df86828701612688565b92505060406127f0868287016126b2565b9150509250925092565b60008060006060848603121561280f57600080fd5b600084013567ffffffffffffffff81111561282957600080fd5b61283586828701612688565b9350506020612846868287016126b2565b9250506040612857868287016126b2565b9150509250925092565b60006020828403121561287357600080fd5b6000612881848285016126b2565b91505092915050565b6000806040838503121561289d57600080fd5b60006128ab858286016126b2565b92505060206128bc85828601612673565b9150509250929050565b600080604083850312156128d957600080fd5b60006128e7858286016126b2565b92505060206128f8858286016126b2565b9150509250929050565b60008060006060848603121561291757600080fd5b6000612925868287016126b2565b9350506020612936868287016126b2565b925050604061294786828701612673565b9150509250925092565b6000806000806080858703121561296757600080fd5b6000612975878288016126b2565b9450506020612986878288016126b2565b935050604085013567ffffffffffffffff8111156129a357600080fd5b6129af87828801612688565b925050606085013567ffffffffffffffff8111156129cc57600080fd5b6129d887828801612688565b91505092959194509250565b6000806000606084860312156129f957600080fd5b6000612a07868287016126b2565b9350506020612a18868287016126b2565b9250506040612a29868287016126b2565b9150509250925092565b6000612a3f8383612d1c565b60208301905092915050565b612a5481613280565b82525050565b612a638161326e565b82525050565b6000612a74826131d3565b612a7e81856131f6565b9350612a89836131c3565b8060005b83811015612aba578151612aa18882612a33565b9750612aac836131e9565b925050600181019050612a8d565b5085935050505092915050565b612ad081613292565b82525050565b6000612ae1826131de565b612aeb8185613207565b9350612afb8185602086016132d7565b612b0481613443565b840191505092915050565b6000612b1c602e83613207565b9150612b2782613454565b604082019050919050565b6000612b3f602783613207565b9150612b4a826134a3565b604082019050919050565b6000612b62601483613207565b9150612b6d826134f2565b602082019050919050565b6000612b85602b83613207565b9150612b908261351b565b604082019050919050565b6000612ba8601f83613207565b9150612bb38261356a565b602082019050919050565b6000612bcb602b83613207565b9150612bd682613593565b604082019050919050565b6000612bee601083613207565b9150612bf9826135e2565b602082019050919050565b6000612c11601f83613207565b9150612c1c8261360b565b602082019050919050565b6000612c34601983613207565b9150612c3f82613634565b602082019050919050565b6000612c57602f83613207565b9150612c628261365d565b604082019050919050565b6000612c7a602983613207565b9150612c85826136ac565b604082019050919050565b6000612c9d602383613207565b9150612ca8826136fb565b604082019050919050565b6000612cc0601b83613207565b9150612ccb8261374a565b602082019050919050565b6000612ce3601383613207565b9150612cee82613773565b602082019050919050565b6000612d06600f83613207565b9150612d118261379c565b602082019050919050565b612d25816132be565b82525050565b612d34816132be565b82525050565b600061010082019050612d50600083018b612a4b565b8181036020830152612d62818a612ad6565b90508181036040830152612d768189612ad6565b9050612d856060830188612d2b565b612d926080830187612d2b565b612d9f60a0830186612d2b565b612dac60c0830185612d2b565b612db960e0830184612ac7565b9998505050505050505050565b600060c082019050612ddb6000830189612a5a565b8181036020830152612ded8188612ad6565b9050612dfc6040830187612d2b565b612e096060830186612d2b565b612e166080830185612d2b565b612e2360a0830184612ac7565b979650505050505050565b60006020820190508181036000830152612e488184612a69565b905092915050565b60006040820190508181036000830152612e6a8185612ad6565b90508181036020830152612e7e8184612ad6565b90509392505050565b60006080820190508181036000830152612ea18187612ad6565b9050612eb06020830186612d2b565b612ebd6040830185612d2b565b612eca6060830184612ac7565b95945050505050565b600060a0820190508181036000830152612eed8188612ad6565b9050612efc6020830187612d2b565b612f096040830186612d2b565b612f166060830185612d2b565b612f236080830184612ac7565b9695505050505050565b60006020820190508181036000830152612f4681612b0f565b9050919050565b60006020820190508181036000830152612f6681612b32565b9050919050565b60006020820190508181036000830152612f8681612b55565b9050919050565b60006020820190508181036000830152612fa681612b78565b9050919050565b60006020820190508181036000830152612fc681612b9b565b9050919050565b60006020820190508181036000830152612fe681612bbe565b9050919050565b6000602082019050818103600083015261300681612be1565b9050919050565b6000602082019050818103600083015261302681612c04565b9050919050565b6000602082019050818103600083015261304681612c27565b9050919050565b6000602082019050818103600083015261306681612c4a565b9050919050565b6000602082019050818103600083015261308681612c6d565b9050919050565b600060208201905081810360008301526130a681612c90565b9050919050565b600060208201905081810360008301526130c681612cb3565b9050919050565b600060208201905081810360008301526130e681612cd6565b9050919050565b6000602082019050818103600083015261310681612cf9565b9050919050565b60006020820190506131226000830184612d2b565b92915050565b600060808201905061313d6000830187612d2b565b61314a6020830186612a5a565b6131576040830185612d2b565b6131646060830184612d2b565b95945050505050565b6000613177613188565b9050613183828261333c565b919050565b6000604051905090565b600067ffffffffffffffff8211156131ad576131ac613414565b5b6131b682613443565b9050602081019050919050565b6000819050602082019050919050565b600081519050919050565b600081519050919050565b6000602082019050919050565b600082825260208201905092915050565b600082825260208201905092915050565b6000613223826132be565b915061322e836132be565b9250827fffffffffffffffffffffffffffffffffffffffffffffffffffffffffffffffff03821115613263576132626133b6565b5b828201905092915050565b60006132798261329e565b9050919050565b600061328b8261329e565b9050919050565b60008115159050919050565b600073ffffffffffffffffffffffffffffffffffffffff82169050919050565b6000819050919050565b82818337600083830152505050565b60005b838110156132f55780820151818401526020810190506132da565b83811115613304576000848401525b50505050565b6000600282049050600182168061332257607f821691505b60208210811415613336576133356133e5565b5b50919050565b61334582613443565b810181811067ffffffffffffffff8211171561336457613363613414565b5b80604052505050565b6000613378826132be565b91507fffffffffffffffffffffffffffffffffffffffffffffffffffffffffffffffff8214156133ab576133aa6133b6565b5b600182019050919050565b7f4e487b7100000000000000000000000000000000000000000000000000000000600052601160045260246000fd5b7f4e487b7100000000000000000000000000000000000000000000000000000000600052602260045260246000fd5b7f4e487b7100000000000000000000000000000000000000000000000000000000600052604160045260246000fd5b6000601f19601f8301169050919050565b7f4f6e6c79207468652063616d706169676e206f776e65722063616e206164642060008201527f7461736b2070726f67726573732e000000000000000000000000000000000000602082015250565b7f436f6e747269627574696f6e206d75737420626520677265617465722074686160008201527f6e207a65726f2e00000000000000000000000000000000000000000000000000602082015250565b7f43616d706169676e20697320636f6d706c657465000000000000000000000000600082015250565b7f4f6e6c79207468652063616d706169676e206f776e65722063616e20636c6f7360008201527f6520746865207461736b2e000000000000000000000000000000000000000000602082015250565b7f5461736b20676f616c20686173206e6f74206265656e20726561636865642e00600082015250565b7f4f6e6c79207468652063616d706169676e206f776e65722063616e207769746860008201527f647261772066756e64732e000000000000000000000000000000000000000000602082015250565b7f5461736b20697320636f6d706c65746500000000000000000000000000000000600082015250565b7f43616d706169676e20676f616c20686173206265656e20726561636865642e00600082015250565b7f43616d706169676e206973206e6f7420636f6d706c6574652e00000000000000600082015250565b7f4f6e6c79207468652063616d706169676e206f776e65722063616e20636c6f7360008201527f65207468652063616d706169676e2e0000000000000000000000000000000000602082015250565b7f4f6e6c79207468652063616d706169676e206f776e65722063616e206372656160008201527f7465207461736b732e0000000000000000000000000000000000000000000000602082015250565b7f43616d706169676e20676f616c20686173206e6f74206265656e20726561636860008201527f65642e0000000000000000000000000000000000000000000000000000000000602082015250565b7f5461736b20676f616c20686173206265656e20726561636865642e0000000000600082015250565b7f43616d706169676e206e6f7420666f756e642e00000000000000000000000000600082015250565b7f5461736b206e6f7420666f756e642e0000000000000000000000000000000000600082015250565b6137ce8161326e565b81146137d957600080fd5b50565b6137e5816132be565b81146137f057600080fd5b5056fea26469706673582212207a4364f20618958d7f9addb48c57894b459ee7d2ce2298f6151c925395ed740164736f6c63430008010033",
  "linkReferences": {},
  "deployedLinkReferences": {}
}